:020000040800F2
:1000000080070020391300089B2A000865130008A8
:100010006513000865130008651300080000000060
:100020000000000000000000000000008D1100082A
:10003000651300080000000039110008850F000852
:100040001113000811130008111300081113000800
:1000500011130008111300081113000811130008F0
:1000600011130008111300081113000811130008E0
:1000700011130008111300081113000811130008D0
:1000800011130008111300081113000811130008C0
:1000900011130008111300081113000811130008B0
:1000A00011130008111300081113000811130008A0
:1000B0001113000811130008111300081113000890
:1000C0001113000811130008111300081113000880
:1000D0001113000811130008111300081113000870
:1000E0001113000811130008111300081113000860
:1000F0001113000811130008111300081113000850
:10010000111300081113000811130008111300083F
:10011000111300081113000811130008111300082F
:10012000111300081113000811130008111300081F
:10013000111300081113000811130008111300080F
:1001400011130008111300081113000811130008FF
:1001500011130008111300081113000811130008EF
:1001600011130008111300081113000811130008DF
:1001700011130008111300081113000811130008CF
:0801800011130008111300081F
:1001880053B94AB9002908BF00281CBF4FF0FF31F6
:100198004FF0FF3000F06EB9ADF1080C6DE904CEF8
:1001A80000F006F8DDF804E0DDE9022304B070474A
:1001B8002DE9F047089D0E4604468C46002B40F07A
:1001C80081808A42174645D9B2FA82F24AB1C2F111
:1001D800200106FA02F320FA01F1974041EA030CE4
:1001E80094404FEA174E230CBCFBFEF6B9B20EFB47
:1001F80016CC43EA0C4306FB01F0984209D9FB18D8
:1002080006F1FF3C80F01581984240F21281023ECF
:100218003B441B1AA4B2B3FBFEF00EFB103344EAB6
:10022800034400FB01F1A14209D93C1900F1FF3355
:1002380080F00181A14240F2FE8002383C44641AF9
:1002480040EA064000211DB1D4400023C5E900431F
:10025800BDE8F08702B9FFDEB2FA82F2002A4FD178
:10026800CB1B4FEA174E1FFA87F80121B3FBFEFCA0
:10027800260C0EFB1C3346EA034608FB0CF3B3427C
:1002880007D9BE190CF1FF3002D2B34200F2EB805D
:100298008446F61AA3B2B6FBFEF00EFB106643EADC
:1002A800064408FB00F8A04507D93C1900F1FF33C4
:1002B80002D2A04500F2D2801846A4EB080440EA16
:1002C8000C40C0E78B4208D9002D00F0AF80002118
:1002D800C5E900060846BDE8F087B3FA83F10029AE
:1002E80049D1B34202D3824200F2BB80841A66EB42
:1002F800030301209C46002DAAD0C5E9004CA7E7BE
:10030800C2F120039740D8409140DE404FEA174E93
:1003180008434FEA104CB6FBFEF11FFA87F80EFBB4
:1003280011664CEA064601FB08F3B34204FA02F4EC
:1003380009D9BE1901F1FF3C80F08E80B34240F22A
:100348008B8002393E44F31A86B2B3FBFEF00EFBF3
:10035800103346EA034600FB08F3B34207D9BE1937
:1003680000F1FF3C74D2B34272D902383E44F31A0A
:1003780040EA01417AE7C1F1200703FA01F422FAC1
:1003880007F31C4320FA07F906FA01F34FEA144C65
:10039800FE4049EA03094FEA1943B6FBFCFE1FFA7F
:1003A80084F80CFB1E6643EA06460EFB08FAB245C3
:1003B80002FA01F200FA01F308D9A6190EF1FF308A
:1003C80048D2B24546D9AEF1020E2644A6EB0A063B
:1003D8001FFA89F9B6FBFCF00CFB106649EA0646E1
:1003E80000FB08F8B04507D9A61900F1FF3C2DD24B
:1003F800B0452BD90238264440EA0E40A6EB080641
:10040800A0FB02894E45C446CE4618D315D075B315
:10041800B3EB0C0266EB0E0606FA07F722FA01F3B5
:10042800CE401F43C5E90076002111E7294628463A
:100438000EE76646EDE6184601E74345E7D2B8EB16
:10044800020C69EB04040138A646E0E76046D3E7EE
:1004580060468CE78646B9E7614674E702383C4453
:100468002BE7084647E7ACF1020C3E4411E7294662
:10047800EEE600BF704700BF0B6801330B60014B0D
:100488001B68184700000020014B1860704700BF28
:100498000000002007B50B460021024601910348E1
:1004A80001A900F05FF903B05DF804FB81040008BE
:1004B800F0B50022C0E9002282604A78252A034666
:1004C80037D00131084611F8012B2B2A41D033D8F7
:1004D800202A42D0232A44D01A7802F04401442921
:1004E80002D16FF386121A701A7842F080021A70DD
:1004F80002782A2A48D1597841F00101421C5970E2
:1005080011782E2959780CBF0120002060F3410191
:10051800597042D151782A293AD0013200210A264D
:10052800104610F8014BA4F13005092D47D9996000
:1005380033E0881CDA70F0BD2D2A05D0302ACBD1E3
:100548001A7842F0400202E01A7842F004021A7067
:10055800B8E71A7842F00802F9E71A7842F0100270
:10056800F5E71A7842F02002F1E707FB015130392C
:100578002246144614F8015BA5F13006092EF4D979
:10058800904218BF5960BBE7024600210A27F0E7EE
:10059800597841F0040159700232114611F8010BE3
:1005A8006C283ED010D8682816D06A2842D04C282B
:1005B80046D059786FF3C6015970114615E006FB0D
:1005C800014130390246ABE774285C7835D07A2887
:1005D800EFD12246062020E050785C7868281AD1AE
:1005E800012161F3C6045C70911C084610F8014BA8
:1005F800DC70782C00F2AF80572C2CD8412C03D01B
:10060800453C022C00F2A7809A78042161F302028B
:100618009A7001227BE02246022060F3C6025A70DB
:10062800E3E750785C786C2801D10421D9E72246A9
:100638000320F2E75A780520EFE722460720ECE787
:100648001A8822F4F04222F0020242F4804242F078
:1006580002021A80C9E7A4F15802202A7BD801A116
:1006680051F822F0270700085F0700085F07000815
:100678005F0700085F0700085F0700085F070008BA
:100688005F0700085F070008110600085F070008F9
:1006980027070008F10600081106000811060008DF
:1006A800110600085F070008F10600085F07000848
:1006B8005F0700085F0700085F0700082D070008AC
:1006C80027070008470700085F0700085F070008BA
:1006D800470700085F070008270700085F070008AA
:1006E8005F070008270700089A78012161F30202D2
:1006F8009A705A7802F07802402A02BF197841F0BD
:1007080001011970632C2AD1003A18BF0122197807
:10071800C1F34004224362F3410119700BE79A7850
:100728000221E3E79A78032161F302029A705A786A
:1007380002F07802A2F140014A424A41E7E79A787A
:10074800032161F302029A705A7812F0780F14BFED
:1007580001220022DBE71A7842F001021A70002217
:10076800D5E700BF2DE9F04F824691B08B46914600
:100778001C46002599F8000008B928460DE12528EF
:1007880009D05946D0470028C0F2078109F1010372
:10079800029301355EE0182200210AA802F0C7F989
:1007A80049460CA8FFF784FE9DF831300290D9071E
:1007B8001BD554F8048BB8F1000F07DA9DF83020E8
:1007C80042F004028DF83020C8F100085A0715D508
:1007D80054F8047B002F14DA9DF831306FF341038D
:1007E8008DF831304FF0FF370BE09DF93020002AAB
:1007F800B4BFDDF834804FF0FF38E7E79F07F1D545
:100808000E9F9DF831100023CDE90D339DF832304D
:1008180003F00703012BC1F3C3012ED1CB1E042B18
:100828001BD8DFE803F0033A3A1A1A0054F8042BED
:10083800D317CDE90A239DF8303013F003064FD0C3
:10084800029B4A465946504602F0B0F80028C0F2CA
:10085800A4800544DDF808908CE754F8042B01299E
:100868004FEAE273CDE90A2302D19DF8283010E05F
:100878000229E0D1BDF92820DAE7022B20D1CB1ECE
:10088800042B10D8DFE803F00309090F0F0054F810
:10089800043B0A9300230B93CDE7073424F00704A5
:1008A800F4E80223C5E754F8043B0A9301294FF002
:1008B80000030B93D9D00229BDD1BDF82830E8E751
:1008C800042B07D1073424F00704F4E80223CDE908
:1008D8000A23B0E7032B04BF54F8043B0A93AAE7A2
:1008E8009DF833007828B5D862281FD825284FD01E
:1008F8005828AFD10DF126030093DDE90A0104ABB6
:100908000CAA02F008F88146002F0DF126000BDB37
:100918009DF83020A0EB09036FF386129F428DF8F3
:10092800302001D9FF1A0D97074644E0633815288F
:1009380090D801A252F820F0CF090008330A000825
:100948005D0800085D0800085D0800085D080008EB
:10095800330A00085D0800085D0800085D08000803
:100968005D080008910A00085F0A0008630A000889
:100978005D0800085D080008A90900085D0800086E
:100988005F0A00085D0800085D0800085F0A0008A3
:100998005946D0470028BFF6FCAE11B0BDE8F08F2D
:1009A800002FDDF828900ADB3946484602F07FF828
:1009B80009EB00070026B9F1000F0CD14AE74846B9
:1009C80002F06EF8F4E70A9B8DF8103000260DF15E
:1009D80011070DF11009A7EB090306B101339DF8C2
:1009E8003220D0066AD5023352060D9948BF0E9AB6
:1009F8000B4448BF9B18B8F1000F73DD9DF83020F9
:100A0800A8EB0308C2F38003039353076AD4500684
:100A180040F1A6803EB159463046D0470028BCDB9D
:100A2800039B01351E4630239BE01E0711D413F0AB
:100A3800100618BF2026DDE90A23002A73F10001F9
:100A4800BFF658AF524263EB4303CDE90A232D2684
:100A580050E72B26EFE700264CE70A9848B30DF13C
:100A6800260300930CAA04AB002101F054FFBDF843
:100A7800323003F0EF0343F4F04343F010038146B0
:100A8800ADF8323000263FE70A9B07293FF6E2AE71
:100A9800DFE801F00D04060D08080D0D1D70D9E6FC
:100AA8001D80D7E62846E917C3E90001D2E61D6094
:100AB800D0E6314F0646A7F105098CE7110748BF74
:100AC800013391E7184659460393D0470028039B02
:100AD800FFF663AF4246002AA5EB080108F1FF388C
:100AE800F0DC0D4636B159463046D0470028FFF6AF
:100AF80054AF01359DF83230D90601D41A0706D50E
:100B080059463020D0470028FFF647AF01359DF8F9
:100B18003230DB0607D59DF833005946D047002808
:100B2800FFF63BAF01350D9E2E44731B002B1ADCDC
:100B38003B464A465946504601F038FF0028FFF622
:100B48002CAF0544A844A8EB0503002B7FF782AE21
:100B580059462020D0470028FFF61FAF0135F2E79D
:100B680020234544B6E759463020D0470028FFF6F1
:100B780014AF0135D9E700BFBB3500084FF01002AC
:100B8800EFF3118382F31188BFF36F8F83F311881A
:100B9800BFF36F8F024B034A1A600020704700BFF3
:100BA8002C00002000093D0010B50748074C01F053
:100BB80095F8074B1860204600F0B2FD2046FFF775
:100BC80063FC002010BD00BFBC350008DD0B000829
:100BD800180200200A2838B5074D044604D12868B1
:100BE80083680D215B68984728688368E1B25B6871
:100BF8009847204638BD00BF180200202DE9F84369
:100C08000D4F04460E4615464FF0010802F104093F
:100C1800B44201DBBDE8F8837A6908FA04F333EAE1
:100C2800020207D17B6155F834301BB159F83410F2
:100C3800204698470134EBE700040140044A0123A9
:100C4800116883400B431360024B185600F0AABA90
:100C580000040140CE3500081F2807DC04490122A2
:100C68000B6802FA00F023EA00000860704700BF32
:100C78000004014003290FD8DFE801F0020F172311
:100C8800154B0122996802FA00F021EA00019960E7
:100C9800DA6822EA0000D8607047012303FA00F0FE
:100CA8000D4B9A6802439A60F2E7012303FA00F0B9
:100CB800094BDA680243DA609A6822EA0000986011
:100CC8007047012303FA00F0034B9A6802439A60C5
:100CD800DA681043DFE700BF00040140074B10B596
:100CE800044653F8300028B943F8341003EBC40322
:100CF8005A6010BD6FF00F00FBE700BF1C02002018
:100D0800034B002243F8302003EBC0035A607047BE
:100D18001C0200200B6886B0042B38D8DFE803F0EB
:100D2800030F192D23001B4A4B68916C19439164DA
:100D3800926C13400193019B002006B07047154A3E
:100D48004B68D16C1943D164D26C13400293029B57
:100D5800F2E7104A4B68916D19439165926D134003
:100D68000393039BE8E70B4A4B68D16D1943D165A0
:100D7800D26D13400493049BDEE7064A4B68116E5C
:100D880019431166126E13400593059BD4E76FF063
:100D98002200D2E7001002400B68042B28D8DFE8B5
:100DA80003F0030B12201900134A4968936C23EAD5
:100DB80001039364002070470F4A4968D36C23EA03
:100DC8000103D364F6E70C4A4968936D23EA0103EB
:100DD8009365EFE7084A4968D36D23EA0103D365B1
:100DE800E8E7054A4968136E23EA01031366E1E759
:100DF8006FF02200704700BF001002400B68042B00
:100E08009FBF044B1B681360002088BF6FF022004F
:100E1800704700BF2C00002010B586B000231D4C81
:100E28000293CDE9003301F029FE03A801F01EFE6C
:100E380023685A0506D4236843F480732360236823
:100E48005B05FCD5A36823F0030343F00103A3600B
:100E5800A36823F0F003A360A36803F00C03042B3A
:100E6800FAD1236823F080732360E36823F4C00376
:100E780043F48003E360694603A800F0C1FE2368D9
:100E880023F4803323602368002023F001032360C8
:100E980006B010BD0010024013B50446084611B94B
:100EA800094800F01BFF01230093084B53F8243036
:100EB8000193013305D0836869461B68984702B0DF
:100EC80010BD6FF00400FAE7DE35000808340008AA
:100ED8002DE9F74F07460E4631B3184800F0FEFEDD
:100EE80000258046AB4607F1040A57F8354014F050
:100EF800F00FE3B21CD15AF8352042F0200BC4F3AE
:100F08000729C4F3033441462046A402019301355E
:100F1800FFF7C2FF019B5A4609F00F0104F1904008
:100F280001F089FEAE42E0D1002003B0BDE8F08FA9
:100F3800102B08BF4FF0300BE1E700BFDE3500088B
:100F48000B4B9A68196898680A4B11F4803F10B5E2
:100F5800094901D1824205D21A680C6822441A60F4
:100F6800034A12681B680A681344181A10BD00BFA8
:100F780010E000E0A8020020A402002008B5FFF756
:100F8800DFFF0C4B0C4A18681168084410600022F7
:100F98001A600A4A11684FF47A73401AB0FBF3F0EA
:100FA80003FB0013136001F041FBBDE8084000F0AB
:100FB800BFBA00BFA8020020A00200209C020020A7
:100FC800094B102283F82320084B40F2E7321A60BD
:100FD800074B00201860074B5A6098601A6842F067
:100FE80007021A60704700BF00ED00E0A40200206D
:100FF800A802002010E000E070B52B4D51B1431C51
:101008000ED12A4A136823F0010313604FF07F437F
:101018002B6070BD44F28813B0F1FF3F08BF18463B
:10102800441E002C27DD44F288139C42A8BF1C46AE
:101038004FF01003EFF3118683F31188BFF36F8F1E
:10104800FFF77EFF1A4B1A6810441860194B0022EC
:101058001A60194B1B68C11A0FD54FF480632B60B7
:101068002B68124A013B53600023936086F3118872
:10107800BFF36F8FCDE70024DAE74FF47A7202FBF3
:101088000414181A04F2E734B4FBF2F402FB040067
:10109800B0F5806F04D9094B9842E0D82860DFE7A3
:1010A8004FF48060FAE700BFA402002010E000E0DF
:1010B800A0020020A80200209C02002040FBFF00A4
:1010C80010B54FF01003EFF3118483F31188BFF3C9
:1010D8006F8FFFF735FF074B074A1B6812689B1A8B
:1010E800034484F31188BFF36F8F4FF47A70B3FB16
:1010F800F0F010BDA00200209C020020094A0A4915
:1011080093680968D967094998674B6843F0805321
:101118004B60002383F31188BFF36F8F9368D86FF8
:10112800704700BF38030020AC35000800ED00E030
:1011380012498A684FF038001044EFF3098C80E8B0
:10114800F01F102080F31188BFF36F8F0C4F4FF002
:1011580000664A6A8A603E60906F0023936780F356
:10116800118804B5104600F02BFABDE8044002F1DE
:10117800380090E8F01F8CF3098870473803002086
:1011880004ED00E01EF0040F0CBFEFF30880EFF34E
:101198000980816911F8021C0229FFD001B501F00C
:1011A80074FC01BD43B2002B08DB012200F01F00D4
:1011B80002FA00F05B09024A42F82300704700BFB8
:1011C80000E100E043B2002BA8BF03F1604301F146
:1011D8000101B8BF064B4FEA0111ACBF03F56143EB
:1011E80000F00F00C9B2B4BF195483F80013704758
:1011F80014ED00E042F8203C009B42F81C3C0A49F0
:10120800019B42F8183C029B42F8143C21F0010172
:101218004FF0807342F8043C42F8081C0023203A3F
:1012280082658367704700BF532700080B4A03464F
:10123800906890B113F1160F806E05D0A0F12002CE
:101248009A4206D8834204D281422CBF0021012150
:1012580000E00021002908BF002070473803002063
:1012680008B504460E46154600F09EF9084B204680
:101278009C6000F0A5F9284686F30988002163B62A
:1012880081F31188BFF36F8F0022002301F05DFA0C
:1012980038030020014910220A60704710ED00E071
:1012A80072B6404080F31188BFF36F8FBFF34F8F42
:1012B80030BF62B6BFF36F8F704700BF30BFFFF714
:1012C800FDBF00BF0E4A08B50E4B22F07F029A60A0
:1012D800BFF34F8FBFF36F8FD3F8882022F47002CB
:1012E800C3F88820EFF3148323F0040383F31488EE
:1012F80000F01CFD01F0A8F800F028F900F03AFD14
:101308000000000800ED00E001B5EFF30580A0F152
:1013180010004FEAC0000449014409C99847BDE8D4
:1013280001400249084700007031000839150008DB
:10133800102080F3118808484FF40261401880F3A8
:101348000988EFF314800221084380F31488BFF35F
:101358006F8FFFF7B7FF000000090020EFF3088048
:10136800EFF3098101B5724600F064F801BD00BFD2
:1013780038B5174B14469A6A9A6A9A6A05469007CE
:1013880016D5586B9A6A120604D519B19A6A22F0D2
:1013980080029A629A6A9A6A9A6AD2060BD40020E4
:1013A8000B4A936A43F0FF0393620023237038BD0E
:1013B8006FF01500EEE75B681B05F0D52946FFF7CF
:1013C80035FF0028EBD080F309880220E8E700BF4A
:1013D80000ED00E00D4B9A6A9A6A9A6A920508D560
:1013E8009A6B9A6A120404D518B19A6A22F40042D8
:1013F8009A62064B9A6A9A6AD20558BF9A6A9A6A9A
:10140800002042F47F429A620870704700ED00E0C5
:10141800074B9A6A9A6A9A6A9A6A9A6A9A6A9A6A56
:101428006FEA02426FEA12429A620020704700BFD8
:1014380000ED00E070B5374B5B688AB00E46C3F329
:101448000803002585F31188BFF36F8F02F07F41F1
:10145800B1F17F4F11D102F00C0108290DD011070D
:1014680001D4064601250022033B8DF80720032BF3
:1014780048D8DFE803F0043F433C2E46F3E7254B0A
:10148800DA6A92073ED4DC6A14F0804409D0283323
:101498001B78F3B10DF1070201213046FFF768FF11
:1014A80004469DF8073093B92022314602A801F07E
:1014B80013FB099B45B3C3F3080222B96FEA532310
:1014C8006FEA4323099302A9204601F0DCFA0AB027
:1014D80070BD114B1B782BB10DF107010120FFF7EF
:1014E80079FFDDE70D4B188884B2002CD9D0FFF7BF
:1014F8008FFFD5E70DF107020021CEE70DF10701B7
:101508000020ECE70024CCE723F4FF7323F0010369
:10151800D8E700BF00ED00E029ED00E02AED00E08B
:10152800024A536943F010035361704700ED00E02D
:10153800044B9968586A884203D003494FF0805297
:101548000A6070473803002004ED00E004480023D7
:101558001021C2180133522B82F80013F9D17047B9
:1015680000E100E008B50E4B9B68834207D1EFF31A
:10157800058393B10B4A536843F08053536000F0DE
:1015880031FE4FF01003EFF3118083F31188BFF39E
:101598006F8FBDE8084001F0D3BC00F035FF00BFF5
:1015A8003803002000ED00E0024B034A0348012104
:1015B80000F096B8008001200000002034340008B4
:1015C800826E054B203A1A60044A2021C3E90112B1
:1015D8001846012100F08EB8AC02002000000B155F
:1015E800F0B51E4F00268E4201DB1046F0BD446860
:1015F80084B353B104F1FF3C14EA0C0F18D11F2C2B
:1016080016D905681CEA050F12D1202C0568D0F8F8
:1016180008C0D2B20FD9B4F1004F0ED8013CB4FAC9
:1016280084F4C4F11F046400072A4CEA040406D9B0
:101638006FF01502D9E70824F6E73E24F4E725F011
:101648001F05154345F0100544F00104BA60FD601C
:1016580001323C6101360C30C5E700BF90ED00E077
:10166800034B05225A60BFF34F8FBFF36F8F70474C
:1016780090ED00E0BFF35F8F014B00225A60704786
:1016880090ED00E013490868082810B51ED8FFF748
:10169800F1FF114C49680022904201F10C0105D17B
:1016A8000E4B1870FFF7DCFF002010BDA26051F848
:1016B8000C3C23F01F03134343F01003E36051F87D
:1016C800043C43F0010323610132E5E74FF0FF30AA
:1016D800EBE700BF4034000890ED00E078030020FD
:1016E80010B5034C01232278FFF77AFF207010BD54
:1016F8007803002008B5084A00231278FFF770FF26
:1017080010F1160F03D0054B0022072800DD08BD95
:1017180098601A610130F8E77803002090ED00E046
:10172800014B1860704700BF18000020C36813B54C
:1017380044685860164800F0D1FA836804F10C0137
:101748001B68984700BBA368062B09D1114B9A6DFB
:1017580012F0805F104A05D0536843F40073536059
:1017680002B010BD996D41F080519965996D01F0F5
:10177800805101910199516841F4007151609A6D4D
:1017880022F080529A65EBE76FF00400E8E700BFAB
:10179800DE35000800100240007000402DE9F341DA
:1017A8000C461146B1F5005F4768C2681E4623D152
:1017B80004F0030304339A000F23934043EA94038D
:1017C800DAB23649023251F82220190C02EA1343E0
:1017D80091FAA1F2B2FA82F2D340BA689A4209D1D8
:1017E8002046FFF739FA2046FFF78AFA00212046FB
:1017F800FFF740FA002543E0B1F5804F48D028496B
:101808002046FFF76BFA0546002844D1BF682548F3
:1018180000F064FA2449034603C96A4682E80300D3
:1018280099681846D1F800801146C04704F00301B2
:1018380004318B000F21994041EA9401CAB2920009
:1018480002F1804202F580320B0C906893FAA3F300
:10185800B3FA83F320EA11419F400F43B6F5802F76
:10186800976011D0B6F5C02F10D0B6F5003F14BF61
:10187800002102212046FFF7FDF92046FFF7DEF997
:10188800284602B0BDE8F0810121F3E70321F1E722
:101898006FF02205F4E76FF00F05F1E70000014053
:1018A800832B0008DE350008003400082DE9F041DC
:1018B800D0F80480C7684546064655F8084B2B48BB
:1018C80000F00CFA8368786029461B68984705463B
:1018D800002847D17368D8E906011A68FFF7F8FAB3
:1018E800002833DB236823F001032360236843F0D7
:1018F8000C032360D8F81430022B29D0012B2CD0EC
:101908002B462846226822F0805222F4B052034324
:1019180013432360636823F44053636098F81030DE
:101928002BB173681A68936843F4407393603968FD
:10193800304601F044FA236843F001032360E36969
:101948009A02FCD5E3695B02FCD50020BDE8F08172
:101958004FF480534FF48060D4E74FF480534FF432
:10196800C060CFE76FF00400F0E700BFDE35000885
:101978002DE9F8430A794368C6681C68012A0D46B0
:1019880000F08180022A0CBF4FF48061002195F895
:10199800059095F80680B9F1020F96BF3E4B4FF4BB
:1019A800005E33F819E0B8F1020F6FD0B8F1040FF8
:1019B8000CBF4FF480530023EF79033A012F14BF73
:1019C8004FF0000C4FF4407C012A62D919F0FD0F4A
:1019D8005FD0B8F1010F5CD9C7B1304A944213D037
:1019E800A2F5744294420FD002F5806294420BD063
:1019F80002F58062944207D002F58062944203D0D7
:101A080002F54052944244D1012F42D1226822F07B
:101A180001022260226802F4C0628A421FBF27685E
:101A280027F4C0670F432760626802F44052964566
:101A38001FBF616821F4405141EA0E0161602268CC
:101A4800296802F010229A421FBF226822F0102251
:101A58001A432260A36803F440739C451FBFA36820
:101A680023F4407343EA0C03A3603368994203D01C
:101A780001F0A5F92B683360236843F00103236064
:101A88000020BDE8F8834FF4C06180E74FF0805331
:101A980092E76FF02200F4E7B03500080038014003
:101AA800084B19681A681B6801F0007102F000629F
:101AB8000A4314BF0120002013F0005F18BF012063
:101AC800704700BF001002401E4B421E9A4233D896
:101AD8001D4B1B6803F4C063B3F5007F0FD11B4B8C
:101AE80098421AD81A4B984228D81A4B984227D8A5
:101AF800194B984294BF00230123002011E0174B93
:101B080098420CD8A3F5F403A3F59053984215D83E
:101B1800134B984214D8134BEBE70423EDE700234B
:101B2800012011490A6822F007021A430A600A686C
:101B380002F00702934200D0012070470323DCE73C
:101B48000223DAE7FFB3C404007000400090D0031A
:101B5800006CDC020048E8010024F40080BA8C0123
:101B6800001BB700808D5B00002002400B68214AF3
:101B7800C3F3031370B5D35C1F4E20FA03F4336824
:101B8800A3420D4628D31D4B1A6842F080721A6092
:101B9800DA6842F08072DA601A689201FCD59A68B5
:101BA800296822F0F0020A439A609A6842F0030218
:101BB8009A609A6802F00C020C2AFAD19A6869684D
:101BC80022F4E0620A439A609A68A96822F4605293
:101BD8000A439A60002004E02046FFF775FF0028BA
:101BE800D1D03368A34202D92046FFF76DFF00B970
:101BF800346070BD3C3600082C0000200010024004
:101C080070B505460C46FFF74BFF00BB2946114847
:101C180001F05FF9104A1368590506D4136843F4B4
:101C28008073136013685B05FCD5D6680B4B696835
:101C3800334043EA012329680B43A9680B4343F067
:101C480002032146D360BDE87040FFF78FBF012033
:101C580070BD00BF0024F400001002408C80FFF922
:101C6800F8B5104B104F53F82050013053F820604E
:101C7800AE4200D8F8BDD5E900342046984770B187
:101C88006CB1E41B24116109084A04F01F0452F8DE
:101C98002100012303FA04F4044342F821400835E3
:101CA800E6E700BF9835000838000020080100204A
:101CB800084BC01A0011084B420900F01F0053F8E6
:101CC8002220012303FA00F010420CBF184600201E
:101CD800704700BF3800002008010020114970B586
:101CE800114C05460E468C4204D10F4CB4420AD121
:101CF800002414E02046FFF7DBFF10B12368AB4255
:101D08000DD01034EFE72046FFF7D2FF08B91034A2
:101D1800ECE72168284600F0D3FE0028F7D12046DA
:101D280070BD00BF08010020380000200248034AA7
:101D38000021121A00F0FBBE100100207C030020D5
:101D480008B50A4B012202201A70FFF789FF00F03C
:101D58006FFB0320FFF784FF00F00AFB00F0E4FCB0
:101D6800034A137B23F00103137308BD7903002092
:101D7800900100202DE98048DFF8F490A7B089F39E
:101D88000888334D334E6B69DFF8E8A0324F43F4CF
:101D9800007300246B61F02385F82230EC772C76F1
:101DA8006C76AC766B6A43F4E0236B62FFF7B8FBA2
:101DB800FFF770FA4FF0FF33AB62EB62274D40F24A
:101DC8000113ADF8243006ABAB602046CDE92044C2
:101DD800FFF746FF0120FFF743FF4FF0010B00F02C
:101DE80083FA1F4B6E621F4905934FF48062534676
:101DF800CDE9034BCDE901440094304600F086FA62
:101E0800737B804623F004033046737301F0C0F8F7
:101E18000F23CDE902431449144B4FF4A072CDE9C6
:101E280004B4CDE90054384600F070FA7B7BEF60CB
:101E380023F004037B7305F11C03C5E907332C76F3
:101E4800C5F80490524641463046FFF709FA00BFEC
:101E580000ED00E090010020100100203803002070
:101E68004C36000880030020A007002079300008C5
:101E780020110020491D000810B5084C23685BB1EB
:101E8800FFF71EF903462068054A0344BDE81040E1
:101E98005361002101F0D2B810BD00BF70030020CB
:101EA8003803002010B54FF01003EFF3118483F3CB
:101EB8001188BFF36F8F084B00225A610A235843D9
:101EC800064B1860064B1960FFF7D6FF84F311889C
:101ED800BFF36F8F10BD00BF3803002070030020D0
:101EE8006C03002049B9EFF3058030B9054B5A6AF5
:101EF8009B689A4201D0FFF701B981F31188BFF3BB
:101F08006F8F7047380300204FF01003EFF31181F3
:101F180083F31188BFF36F8F044B9A68D37B013B1F
:101F2800D37381F31188BFF36F8F70473803002094
:101F3800094B03F12802824205D19B688B4202D1EA
:101F48004B7BDB0606D1D1E9003213605A600023CF
:101F5800C1E90033704700BF3803002038B5124C80
:101F68002369A26801460BB1E5680CE004F128007A
:101F780001F008F8537B0546980644BF43F0080370
:101F88005373002DF0D049B9537BDB0606D1AB69FA
:101F980023B9D3897F2B01D9626238BD954201D01C
:101FA800FFF76AFF6562F8E73803002010B54FF0C5
:101FB8001003EFF3118483F31188BFF36F8F084B7D
:101FC8009A68D37B0133D3730020FFF7C7FF84F3EC
:101FD8001188BFF36F8FBDE8104000F0BDBF00BF90
:101FE8003803002070B490F90D20437B002A29DBC8
:101FF800DB0627D183692BBB134AD2E90A3402F1E5
:1020080028018B4218D0BBB190F90E5093F90E609D
:10201800AE420CDD5A68C0E9003210605860437B5C
:1020280063F07F03437370BC0020FFF797BF9C42A7
:1020380002D01B68002BE9D1C0E90014D36A1860EC
:10204800D062ECE770BC70473803002010B54FF041
:102058001002EFF3118482F31188BFF36F8F427B74
:10206800510704D484F31188BFF36F8F10BD22F099
:1020780004024273FFF7B6FF21460248BDE810404C
:10208800FFF730BF7A03002070B590F90D30002BB0
:10209800014602DA1648FFF74BFF164AD2E90A341E
:1020A80002F1280083421CD0DBB191F90E5093F95C
:1020B8000E60AE4210DD5868C1E900300160596019
:1020C8004B7B906863F07F034B73431A5842BDE81B
:1020D80070405841FFF742BF9C4202D01B68002B5A
:1020E800E5D1C1E90004D36A1960D162E8E700BF0D
:1020F800600300203803002070B501464FF010033C
:10210800EFF3118483F31188BFF36F8F164B174ACF
:1021180098681568A8421D4606D1FFF7ADFE84F3FE
:102128001188BFF36F8F70BD00261660104A1268C1
:10213800BAB1C2897F2A14D8427BD20611D10D4A7E
:1021480090F90E60126896420BDB0B4A904208D059
:102158005A698A4202DCFFF797FFDEE7521A5A6192
:10216800DDE700236B61DAE738030020680300200D
:10217800700300206C0300201001002070B5044695
:10218800183000F035FF4FF01003EFF3118683F39A
:102198001188BFF36F8F94F90D30002B07DA0F48C1
:1021A8002146FFF7C5FE637B03F07F0363730C4D85
:1021B800637BA86843F010036373031B58425841BC
:1021C800FFF7CCFE86F31188BFF36F8FAB68A3428D
:1021D80003D1BDE8704000F0BFBE70BD60030020B1
:1021E800380300202DE9F04104464FF01003EFF3C7
:1021F800118283F31188BFF36F8F437B13F0280F8D
:1022080005D082F31188BFF36F8FBDE8F08143F0EA
:102218002003437382F31188BFF36F8F183000F0E7
:10222800E7FE4FF01003EFF3118683F31188BFF335
:102238006F8F637BD80616D1A269A2B9190607D594
:1022480026482146FFF774FE637B03F07F03637320
:10225800234B9868021B50425041FFF77FFE04F160
:10226800300800271DE09B07F9D5A0682146FFF735
:102278005FFE637B23F0020363730023A360EEE732
:1022880005F1180000F0B4FEA8682946FFF750FED3
:102298006B7BAF6023F002036B73EF672846FFF791
:1022A800A1FE256B454501D0002DE9D10C4B9A685C
:1022B8000C4B9A4202D10120FFF750FE637B43F09A
:1022C80008036373236E86F31188BFF36F8F002BA7
:1022D8009BD02046BDE8F041184700BF60030020AE
:1022E8003803002010010020044B002103F12802CC
:1022F800C3E90A220846FFF7D5BD00BF380300200E
:10230800014B9868704700BF380300202DE9FF4152
:1023180000F13005C0E90C550E9D05730425457381
:102328000F460D9D8573D61D00250C9AC57326F0A2
:1023380007062037C0E90655C0E91A76056706F191
:10234800200802920B9A019288440A9A0092424607
:102358000446FEF74FFF054B9B68C4E9175503B1C8
:102368005B6F6367404604B0BDE8F0813803002026
:10237800F0B5224F224D87B03E46BD4205F13004EC
:102388000BD3FFF7C1FD1E4C1E4F0A25B44221D3C3
:1023980007B0BDE8F040FFF709BE54F8043C0593C8
:1023A80054F8103C049354F8143C039354F8183C24
:1023B800029354F81C3C019354F8203C009354E9D0
:1023C8000A2354E90C01FFF7A1FF54F8303CDD65FE
:1023D8002546D2E7626A531C09D022EAE27282FBE0
:1023E800052352EA0301206803D1FFF72FFE30349A
:1023F800CCE73946183000F091F8F8E70C010020D6
:102408000C010020B92F000808B54FF01003EFF3B6
:10241800118483F31188BFF36F8F044B9868186198
:10242800FFF7ACFE2046FEF769FE00BF3803002028
:10243800024A0349034800F07BB900BF98360008F8
:10244800513600087236000808B50648064A07499A
:10245800121A00F041FBBDE80840054A0549064844
:1024680000F03ABB000000200C0100209C36000858
:10247800000000009C36000800000020034B1B6889
:102488000BB9FEF71DBE0020704700BF7403002083
:1024980030B5036868B10A4A5268904209D043B11E
:1024A800D3E90421D0E90445121945EB0101C3E938
:1024B8000421426813605A600023C0E9003330BD2C
:1024C8003000002038B5134B1C689C4208BF00241C
:1024D800FFF7D4FF0546BCB1D4E90401401B61EB0A
:1024E800E571012871F1000311DB6FF00042002350
:1024F800824273EB010400DA1046074B5B6913B1A3
:102508009842A8BF184638BD6FF00040F5E7002094
:10251800F3E700BF30000020380300202DE9F74F13
:10252800019119464B1C08BFB2F1FF3F82466CD09F
:10253800541C6FF0010341F100054FF0FF3BB3EB72
:1025480004086BEB0509B8F1000F79F100030FDB04
:10255800FFF794FF334AD2E9001C6FF001035B1ABE
:102568006BEB0C021E1B62EB0507341A67EBE07578
:10257800019BCAF808304FF01003EFF3118683F37C
:102588001188BFF36F8FFFF779FF012C75F10003F6
:10259800254BB8BF01241A68B8BF0025241845EB9D
:1025A800E0759A42CAE9044501D05F6852B95A6891
:1025B800CAF804205A68CAF80030C2F800A0C3F864
:1025C80004A014E0D2E90489DAE90445444575EB2E
:1025D80009011DDAB8EB040069EB0501C2E9040141
:1025E8005168CAE90021C1F800A0C2F804A01A681D
:1025F8009A4206D0924504D1FFF764FF0021FEF706
:10260800FBFC86F31188BFF36F8F03B0BDE8F08F32
:10261800B4EB080065EB0901BA42CAE90401C6D067
:102628001268C3E710020020300000202DE9F74FA0
:102638000646FFF761FD4FF01003EFF3118483F3B3
:102648001188BFF36F8F2C4DDFF8B0A0DFF8B0B062
:102658002E605146D5F800C0DBF800006246D3175B
:102668005845DAE90089CDE900230DD060B1D0E9F9
:102678000467B445BB411EDA009BB6EB030C019B13
:1026880067EB0306C0E904C6009B13EB0802019B35
:102698004FF0000643EB0903C1E900232E60FFF762
:1026A80011FF3146FEF7A8FC84F31188BFF36F8F42
:1026B80003B0BDE8F08F18EB06084FF000024FF0AA
:1026C800000349EBE679C0E90423ACEB0606CAE946
:1026D80000892E60FFF7DCFE84F31188BFF36F8F4B
:1026E800836898474FF01003EFF3118483F3118840
:1026F800BFF36F8F0149ADE774030020100200207B
:102708003000002038B5064C064DAC4201D30020FD
:1027180038BDD4E90112204600F0D4FC1434F4E7A3
:102728000C0100200C010020002070470020704799
:102738000FB407B504A951F8040B0191FDF7AAFEDF
:1027480003B05DF804EB04B07047044608B50846CA
:1027580011461A46A047FFF7D3FDFEF703FF83682B
:1027680000EBC101B3F5004F2CBF51F8220031F83E
:102778001200704700EBC1018068B0F5004F2CBF14
:1027880041F8223021F81230704708B50122FFF7CE
:10279800E6FF400808BD8368B3F5004F00EBC101B0
:1027A80008D34B681AB143F001034B60704723F01C
:1027B8000103FAE74B881AB143F001034B807047D5
:1027C80023F00103FAE753000122FFF7D3BF806823
:1027D8000131B0F5004F2CBF02200120081AB0FAD1
:1027E80080F0C0F11F0070472DE9F04104460D4606
:1027F800FFF7CBFFA368B3F5004F014601D30128CB
:1028080035D02046FFF7E3FF04EB800216699EB936
:10281800012303FA00F0E3680343E36029461561E6
:102828002B4602222046FFF7A5FF03222946204611
:10283800BDE8F041FFF79EBF022231462046FFF770
:102848008EFF02220346074629462046FFF792FFDD
:102858003346032229462046FFF78CFF03223946D8
:102868002B462046FFF786FF02223146DFE7BDE808
:10287800F081B2F5802FF8B52CBF08250425551B2B
:10288800CC1D0D4424F0070425F007050022002381
:102898002D1B0460ED08C4E9002300232946A56028
:1028A800E3602046FFF793FF86001B36411CF608BD
:1028B80004F1100218468B4229DB324620460021DB
:1028C800FFF781FFAF1B204601220021FFF763FFBE
:1028D8003A463146FFF777FF334631462046002215
:1028E800FFF748FF294620460022FFF76CFF3B46CA
:1028F800294620460022FFF73DFF294620460122AF
:10290800FFF749FF3146BDE8F840FFF76DBF42F8D1
:10291800040B0133CFE72DE9F74F9946D3781446D6
:102928006F2BA3F1410206460F4601922DD028D8FD
:10293800582B14BF0A251025DDF83080AA464FF021
:10294800000B52465B4630463946FDF719FC092A0A
:10295800D3B21FD830335F45DBB208BF564508F8FD
:10296800013D01D3C84512D823789B0605D5082D0B
:1029780016D1A37843F00803A370404603B0BDE81E
:10298800F08F03F0F703702BD3E70825D4E706464A
:102998000F46D6E7019A192A94BF37335733DAE737
:1029A800102DEAD1A37843F01003E5E72DE9F041B3
:1029B8000746884615461E461446B442A4EB050051
:1029C80002D33EB923782BB114F8010B4146B8471E
:1029D8000028F2DABDE8F0817047C26801210020C2
:1029E800FEF70CB9C26802210120FEF707B9C268D8
:1029F80003210220FEF702B9C26804210320FEF772
:102A0800FDB8C26805210420FEF7F8B8C2680A219B
:102A18000520FEF7F3B8C26810210A20FEF7EEB8C9
:102A2800002208B511460620FEF7CCFB002211460D
:102A38000720FEF7C7FB002211460820FEF7C2FB5D
:102A4800002211460920FEF7BDFB002211460A208C
:102A5800FEF7B8FB002211461720FEF7B3FB002251
:102A680011462820FEF7AEFB002008BD14230022E3
:102A7800C0E900234FF0007383607047704700215E
:102A8800012000F000B800F040BA0146006800F0EC
:102A98003CBA08B5FEF712FCBDE80840FEF748BD91
:102AA800034600201A5C02B970470130FAE7034672
:102AB80000201A5C0AB1884200D170470130F8E75B
:102AC800431E013913F8012F11F8010F824201D179
:102AD800002AF7D1101A7047F0B581EA0004A5075B
:102AE80003460BD0013B0A4491421BD1F0BD002A9A
:102AF800FCD011F8014B03F8014B013A9C07F6D1C1
:102B080022F003041D1F96080F19B94205D16FF072
:102B1800030505FB06222344E4E751F804CB45F8F6
:102B280004CFF2E711F8014B03F8014FDCE770B569
:102B3800C9B203469C0711D141EA012422F00306D9
:102B480044EA04451E449408B3420DD16FF00305CE
:102B580005FB04221A44934209D170BD002AFCD017
:102B680003F8011B013AE5E743F8045BECE703F8D7
:102B7800011BF0E74FF0FF3070470B46896870B5CE
:102B880069B101255E680C6885408A682A4002D0D0
:102B98004B683046984714B121462468F5E770BD64
:102BA80043685B681B690B600020704743685B687B
:102BB800586942400A4042405A61002070474368C1
:102BC8005B6800209961704743685B6800209962E0
:102BD800704743685A6853694B40536100207047F7
:102BE800C368986830B558B10024814213D1086889
:102BF8005CB9DC689860A14200D1D8600020086008
:102C080072B9002030BD2846EFE72060D8688142BD
:102C180008BFDC60F2E705680446002DF3D13AB13D
:102C28009A680A60D86899600028EAD1D960E9E70B
:102C38006FF01500E6E7F0B502F03005302D08BF5B
:102C4800C66A4FF0010404FA01F404BF2643C662C1
:102C58004768C2F3801627EA04078E403E43466061
:102C680094FAA4F7B7FA87F7D0F808C04FF0030E24
:102C78007F000EFA07F72CEA070C94FAA4F7B7FAC4
:102C880087F7C2F3C1167F00BE4046EA0C0686608D
:102C980094FAA4F6B6FA86F6C76876000EFA06F62F
:102CA80027EA060794FAA4F6B6FA86F6C2F3412292
:102CB8007600B2403A43202DC26015D107292CDC9A
:102CC80094FAA4F2016A32B3B2FA82F292000F26A1
:102CD80006FA02F221EA020194FAA4F2B2FA82F2A6
:102CE800920093400B43036294FAA4F3B3FA83F37C
:102CF800026894FAA4F403215B00B4FA84F42D0961
:102D080001FA03F3640022EA030305FA04F41C43FE
:102D180004600020F0BD2A46D8E7220A466A92FAE3
:102D2800A2F181B1B1FA81F189000F2792FAA2F2DA
:102D3800B2FA82F207FA01F1920026EA0101934001
:102D48000B434362D0E72946EEE713469A0510B5D0
:102D5800406819D59C0710D55A072DD55022DC0696
:102D68000DD542F4007213F4006F44681BD15B0563
:102D780013D501238B40A3620FE01022EFE79C06D6
:102D8800F1D542F48062EEE7DC0510D5DA0610D4FE
:102D980013F0200218BF4FF4806240680023FFF749
:102DA8004AFF002010BD01238B40A361F5E73022C4
:102DB800F3E74FF40072F0E76FF02200F2E7C36820
:102DC80037B50C464168586851F8085B836801AA12
:102DD800DB689847002806DB019B03EB5403B3FB31
:102DE800F4F39BB2EB6003B030BDC3681B680B60A3
:102DF80043681A68136803F4C063B3F5806F28D07A
:102E0800A3F5C060434243410B71536803F4405338
:102E1800B3F5805F1FD0B3F5405F1ED0002B14BF01
:102E2800032301234B71136803F01023B3F5805F6C
:102E380015D0B3F1805F14BF032302238B7193680D
:102E480003F44073A3F5407253425341CB71002001
:102E580070470223D8E70023E4E70223E2E70423CC
:102E6800ECE743681B68DA691206FCD5402289B290
:102E78001A621985704743681B68D869DA69D207EE
:102E8800DA69C0F3C00048BF40F00200910748BFAC
:102E980040F00400C20744BF08221A62810744BFF9
:102EA80001221A62420744BF02221A6204221A62ED
:102EB800704743681B68DA69100744BF08221A6222
:102EC800DA69920643BF9B8C0B7000204FF0FF30ED
:102ED80070470B681B090133B0FBF3F04B6803F034
:102EE8007F0358438B685B0E01335B00B0FBF3F044
:102EF80070474FF01002EFF3118382F31188BFF38C
:102F08006F8FFEE708B5FFF7F4FFF8B505460E46E4
:102F18004FF01003EFF3118783F31188BFF36F8F1E
:102F2800FFF7EEF9314604462846FFF7EBFF87F333
:102F38001188BFF36F8F2046BDE8F840FEF712BB3B
:102F4800034620B9EFF305820AB9FEF7D7B883F331
:102F58001188BFF36F8F70474FF01003EFF31180A4
:102F680083F31188BFF36F8FFFF7EABF014608B5F7
:102F78008068FEF7DDFF4B7B23F002034B730023D1
:102F88008B6008BD0368984214BF1846002070473C
:102F980010B54FF01003EFF3118483F31188BFF3DA
:102FA8006F8FFFF71FF884F31188BFF36F8F10BD81
:102FB80070B504464FF01003EFF3118683F31188C0
:102FC800BFF36F8F50F8103CA0F1180513B12846D5
:102FD800FFF7CCFF14F80B3C23F0140304F80B3C68
:102FE8002846FEF7FFFF86F31188BFF36F8F70BD89
:102FF80010B54FF01002EFF3118482F31188BFF37C
:103008006F8F03683BB1FFF743FA002084F3118800
:10301800BFF36F8F10BD6FF01500F7E710B54FF0D5
:103028001003EFF3118483F31188BFF36F8FFFF759
:1030380049FA84F31188BFF36F8F10BD70B5044649
:103048000D464FF01003EFF3118683F31188BFF399
:103058006F8FFFF737FA012805DDA04203DD294607
:103068002046FDF7C9FF86F31188BFF36F8F70BD47
:1030780038B5044600254FF01002EFF3118382F3B0
:103088001188BFF36F8F206988B1256183F3118898
:10309800BFF36F8FFFF7A6F84FF01003EFF311801F
:1030A80083F31188BFF36F8FFFF74AFFE3E7FFF75A
:1030B800B5FF01210228D8BF0846FFF7BFFFFEF77A
:1030C800EFF8D8E710B400F10C04C0E9034410BCD1
:0630D800FFF7CFBB7047BB
:0230DE00FFFFF2
:0830E000D8D0FF7F01000000C1
:1030E800850B000800000000210E000838000020B1
:1030F8000D270008000000008D16000800000000E1
:10310800292A000848000020B518000858000020A7
:10311800B518000868000020B10B00080000000086
:10312800C90F000878000020351700088800002023
:10313800351700089800002035170008A80000205F
:1031480035170008B800002035170008C80000200F
:1031580035170008D800002035170008E8000020BF
:0831680035170008F8000020F3
:1031700000000000872A000800000000872A0008DD
:1031800000000000872A000800000000872A0008CD
:1031900000000000872A000800000000872A0008BD
:1031A00048000020E329000848000020ED2900081D
:1031B00048000020F729000848000020012A0008E4
:1031C000480000200B2A000800000000872A0008A1
:1031D00000000000872A000800000000872A00087D
:1031E00000000000872A000800000000872A00086D
:1031F00000000000872A000800000000872A00085D
:1032000000000000872A000800000000872A00084C
:1032100000000000872A000800000000872A00083C
:1032200000000000872A000848000020152A000836
:1032300000000000872A000800000000872A00081C
:1032400000000000872A000800000000872A00080C
:1032500000000000872A000800000000872A0008FC
:1032600000000000872A000800000000872A0008EC
:1032700000000000872A000800000000872A0008DC
:1032800000000000872A000800000000872A0008CC
:1032900000000000872A000800000000872A0008BC
:1032A00000000000872A000800000000872A0008AC
:1032B000480000201F2A000800000000872A00089C
:1032C00000000000872A000800000000872A00088C
:1032D00000000000872A000800000000872A00087C
:1032E00000000000872A000800000000872A00086C
:1032F00000000000872A000800000000872A00085C
:1033000000000000872A000800000000872A00084B
:1033100000000000872A000800000000872A00083B
:1033200000000000872A000800000000872A00082B
:1033300000000000872A000800000000872A00081B
:1033400000000000872A000800000000872A00080B
:1033500000000000872A000800000000872A0008FB
:1033600000000000872A000800000000872A0008EB
:1033700000000000872A000800000000872A0008DB
:1033800000000000872A000800000000872A0008CB
:1033900000000000872A000800000000872A0008BB
:1033A00000000000872A000800000000872A0008AB
:1033B00000000000872A000800000000872A00089B
:1033C00000000000872A000800000000872A00088B
:1033D00000000000872A000800000000872A00087B
:1033E00000000000872A000800000000872A00086B
:1033F00000000000872A000800000000872A00085B
:1034000003000000010000000100000002000000B5
:103410000400000008000000100000002000000070
:103420004000000080000000FFFFFFFFFFFFFFFFE4
:10343000FFFFFFFF000000200000000000000B065F
:10344000020000004834000800000008F6350008BB
:103450002600020700000020FE35000820000B11A6
:10346000FFFF000000000048000000000100000015
:1034700001000000FFFF0000000400480100000000
:103480000100000002000000FFFF000000080048EB
:10349000020000000100000004000000FFFF000027
:1034A000000C0048030000000100000008000000BC
:1034B000FFFF0000001000480400000001000000B1
:1034C00010000000FFFF000000140048050000008D
:1034D0000100000020000000FFFF0000001800486D
:1034E000060000000100000040000000FFFF000097
:1034F000001C0048070000000100000080000000E0
:10350000532D0008A92B0008B52B0008C72B000875
:10351000D12B0008DB2B0008A5170008E92B0008B9
:10352000000000000709000000020000070A000078
:103530000000000007020000000200000703000076
:1035400000000000003801400000000003000000FF
:1035500000400000000000000000000024350008CA
:1035600002000000004400400000000002000000D3
:1035700000000200000000000000000034350008D8
:1035800002000000BB2E00086B2E00087F2E0008F2
:1035900079190008F32D0008E830000828310008E8
:1035A000303100087031000870310008F5FFFFFF6E
:1035B000001000000030286E696C290055415254FB
:1035C0005F310073746D33322D65787469000607BE
:1035D00008090A17171717172828282828285354C6
:1035E0004D33325F434C4B5F524343007379735FFB
:1035F000636C6F636B00464C4153485F300053521D
:10360000414D5F30004750494F48004750494F47B0
:10361000004750494F46004750494F4500475049E1
:103620004F44004750494F43004750494F420047DD
:1036300050494F4100554152545F32000000000094
:103640000000000001020304060708096D61696EAD
:10365000007A65706879722D76322E342E302D32D4
:103660003731302D67353335386131313638376190
:1036700033002A2A2A20426F6F74696E67205A65C8
:1036800070687972204F53206275696C64202573CD
:0C369000202573202A2A2A0A00000000CE
:10369C00352700081D0D0008A10D000800000000D2
:1036AC00050E0008000000007D2B000800C2010080
:1036BC000000000000C201000000000000093D00F5
:0836CC00300000203000002056
:1036D400DE350008000000000400002000000000A7
:1036E400C335000800000000000000001C02002098
:1036F40035360008643500088435000824000020AD
:10370400BC35000844350008843500081C0000203E
:10371400EC3500080000000000000000000000007C
:1037240005360008EC3400080035000828030020A2
:103734000B360008D83400080035000818030020B0
:1037440011360008C43400080035000808030020BE
:1037540017360008B034000800350008F8020020CD
:103764001D3600089C34000800350008E8020020DB
:10377400233600088834000800350008D8020020E9
:10378400293600087434000800350008C8020020F7
:103794002F3600086034000800350008B802002005
:0437A4000000000021
:0400000508001339A3
:00000001FF
